:100000000C9434000C9449000C9449000C94490061
:100010000C9449000C9449000C9449000C9449003C
:100020000C9449000C9449000C9449000C9449002C
:100030000C9449000C9449000C9449000C9449001C
:100040000C9449000C9449000C9449000C9449000C
:100050000C9449000C9449000C9449000C944900FC
:100060000C9449000C94490011241FBECFEFD8E036
:10007000DEBFCDBF13E0A0E0B1E0E0E3FBE102C0F2
:1000800005900D92A630B107D9F70E94B5060C94E1
:10009000960D0C9400006F927F928F92AF92CF9248
:1000A000EF92FF920F931F93CF93DF9300D01F9295
:1000B000CDB7DEB73C01F62E122F81E08983022BEB
:1000C000402B4A838989882AA828CA28EC28EB82F1
:1000D00043E0BE016F5F7F4F8F2D0E945B0141E0C7
:1000E00070E060E08F2D0E945B0180E098E11123B9
:1000F00011F080E090E1F301918380830F900F90E5
:100100000F90DF91CF911F910F91FF90EF90CF90C3
:10011000AF908F907F906F9008950F931F93CF9320
:10012000DF9300D0CDB7DEB78C01862F42E0BE0151
:100130006F5F7F4F0E94790129813A8132272327FF
:100140003227F801A081B1810E940F082FE0969517
:100150008795779567952A95D1F70F900F90DF9146
:10016000CF911F910F910895CF93DF93EC0143E15D
:1001700050E00E945C0A1B8ADF91CF910895089598
:10018000FC01848995890895FC01758B648B089521
:10019000DC015696ED91FC915797908158968C9181
:1001A00021E030E001C0220F8A95EAF7892F822BE7
:1001B00080830895DC015696ED91FC91579720813C
:1001C00058963C9181E090E001C0880F3A95EAF79B
:1001D0008095822380830895FC01758B648B578BF7
:1001E000468B208F0C94DA001092B9008039914030
:1001F00021F48CE08093B800089588E4FBCF88EC6C
:100200009091BC0097FD08C0882341F0815095E390
:100210009A95F1F70000F4CF811106C080E092E0DA
:100220000E94C70481E0089580E0089584EA8093E5
:10023000BC000C94FF0084E98093BC0085E690919B
:10024000BC0094FF07C0815029F095E39A95F1F71F
:100250000000F5CF08958093BB0084E88093BC0034
:100260000C94FF00CF93C82F0E9416018C2F880F8B
:10027000CF910C942B01CF93C82F0E941601CC0F65
:10028000C160C093BB0084EC8093BC00CF910C9400
:10029000FF0081110BC084E88093BC000E94FF0026
:1002A000811106C08091BB0090E0089584ECF4CFEA
:1002B00080E090E80895EF92FF920F931F93CF9301
:1002C000DF937B01042F0E943201E70110E0CE0191
:1002D0008E199F098017910724F489910E942B01A0
:1002E000F6CFDF91CF911F910F91FF90EF900C947B
:1002F0001B01FF920F931F93CF93DF93F62E072FCF
:10030000142F0E943B01CF2DD02F112371F01150DB
:1003100081E009F480E00E944901811520E89207FC
:1003200059F489E092E00E94C704DF91CF911F91B8
:100330000F91FF900C941B018993E7CFCF93DF932C
:10034000EC01FC01E859FF4F1182108213821282E6
:1003500084599F4F0E94E002CB57DF4F80E090E02E
:10036000A8E4B2E488839983AA83BB83DF91CF9109
:1003700008958F929F92AF92BF92EF92FF920F9348
:100380001F93CF93DF93EC017B018C0104591F4F26
:10039000C8010E94ED02CB57DF4F88809980AA8068
:1003A000BB8020E030E040E752E4C501B4010E9488
:1003B0008B0887FF17C0A501940160E070E080E71B
:1003C00092E40E941E080E940209C801DF91CF91A9
:1003D0001F910F91FF90EF90BF90AF909F908F90E3
:1003E0000C94E90281E0F7018083DF91CF911F91A6
:1003F0000F91FF90EF90BF90AF909F908F900895D6
:100400004F925F926F927F928F929F92AF92BF9224
:10041000CF92DF92EF92FF926A017B0120E030E001
:10042000A901CB01B6010E948B0818160CF059C027
:1004300020E030E040E85FE3C701B6010E941E08FB
:100440004B015C0120E030E040E85FE3C701B6010A
:100450000E941F089B01AC01C501B4010E949008D5
:100460006B017C01AC019B010E94EF094B015C0117
:10047000AC019B01C701B6010E94EF0920E030E00A
:1004800040E450E40E949008A70196010E941F08D2
:100490002B013C01A5019401C501B4010E94EF09A3
:1004A000A70196010E94EF0920E030E040EA50E405
:1004B0000E9490089B01AC01C301B2010E941F0879
:1004C0009B01AC010E941F08FF90EF90DF90CF903E
:1004D000BF90AF909F908F907F906F905F904F9064
:1004E000089560E070E0CB01EFCFEF92FF920F93A1
:1004F0001F93CF93DF93EC017C0188E6E80EF11C9B
:100500006AE4C7010E948D000E94380920E030E0B3
:10051000A9010E948B088E010B571F4F18169CF0E3
:10052000F8011082118212821382F80140815181F8
:1005300062817381CE01DF91CF911F910F91FF9066
:10054000EF900C9428046AE4C7010E948D000E9479
:10055000380920E030E04AE754E40E949008AB01FB
:10056000BC01CE010E94000220E030E040E85FE3E1
:100570000E941F089B01AC0160E070E088EC92E4EF
:100580000E949008F8016083718382839383CDCFAA
:100590008F92AF92CF92EF920F93CF93DF93CDB71D
:1005A000DEB73A853F9388599F4F0E944B000F90CA
:1005B000DF91CF910F91EF90CF90AF908F900895F2
:1005C000FC01778B668B408F0895FC0184899589A7
:1005D0000895FC01758B648B0895DC015696ED91AE
:1005E000FC915797908158968C9121E030E001C0A2
:1005F000220F8A95EAF7892F822B80830895DC01E8
:100600005696ED91FC915797208158963C9181E048
:1006100090E001C0880F3A95EAF7809582238083A5
:100620000895EF92FF920F931F93CF93DF937C0176
:100630008B01EA018EE192E00E94C704B801C70174
:100640000E94C603C7010E947804C8010E94780472
:10065000CE010E94C8008AE090E02FEF33ED40E326
:10066000215030404040E1F700C000000197A9F759
:10067000CE010E94DA0080E0DF91CF911F910F91AF
:10068000FF90EF900895FC01108211821282138274
:10069000148215821682178210861186128613869E
:1006A0000895FC0140835183628373830895FC01A4
:1006B00044835583668377830895FC01408751877F
:1006C000628773870895FC016081718182819381C3
:1006D0000895FC0164817581868197810895FC01EC
:1006E00060857185828593850895FB0140815181E4
:1006F00062817381DC014D935D936D937C931397BD
:10070000448155816681778114964D935D936D93F5
:100710007C9317974085518562857385FC014087DE
:100720005187628773870895FC01DB014D915D91CC
:100730006D917C91139740835183628373831496E8
:100740004D915D916D917C9117974483558366839C
:10075000778318968D919D910D90BC91A02D8087E7
:100760009187A287B38708958AE592E00E94190DC8
:10077000853A59F070E060E080E090E00E94490D19
:1007800065EA8AE592E00C94370D0895CF92DF92E6
:10079000EF92FF920F931F93CF93DF93CDB7DEB706
:1007A0002C970FB6F894DEBF0FBECDBF7C016B0156
:1007B0000E94B40380E090E00E94210D8C01C2975A
:1007C00010F010E000E0C7010E94830469837A837F
:1007D0008B839C83C7010E9496046D837E838F83E5
:1007E0009887C6010E94830469877A878B879C87D4
:1007F0008CE0809FB001819F700D11246E5F7F4F50
:100800004CE050E0CE0101960E94270DB8016F5FC9
:100810007F4F80E090E00E94490D2C960FB6F8942F
:10082000DEBF0FBECDBFDF91CF911F910F91FF9023
:10083000EF90DF90CF900895CF93DF93EC0143E1E9
:1008400050E00E945C0A1B8ADF91CF9108950895C1
:10085000FC01EC59FF4F208131812A3031058CF4A5
:10086000D9011196B183A0832B5F3F4F220F331F15
:10087000220F331F280F391FF901408351836283F0
:10088000738308956B5F7F4F660F771F660F771F27
:10089000860F971FFC016081718182819381089589
:1008A000FC01EA59FF4F208131812A3031058CF457
:1008B000D9011196B183A083215F3F4F220F331FCF
:1008C000220F331F280F391FF901408351836283A0
:1008D00073830895615F7F4F660F771F660F771FE1
:1008E000860F971FFC016081718182819381089539
:1008F000FC01EC59FF4F118210828A599F4FFC0175
:10090000118210820895FC01EC59FF4F2081318142
:100910002B5F3F4F220F331F220F331F820F931F76
:10092000FC0160817181828193810895FC01EA5903
:10093000FF4F20813181215F3F4F220F331F220F54
:10094000331F820F931FFC0160817181828193812B
:1009500008958C599F4FFC018081918108951092D8
:10096000C50080E18093C400E0ECF0E0808182600B
:10097000808388E18093C1008EE08093C200089557
:100980009091C00095FFFCCF8093C6000895CF934F
:10099000DF93EC018991882319F00E94C004FACFFB
:1009A0008DE00E94C0048AE0DF91CF910C94C004D6
:1009B000CF93DF93EC018991882319F00E94C00442
:1009C000FACFDF91CF91089587E36A3008F480E38E
:1009D000860F089588EC9091C00097FD08C0882389
:1009E00049F0815095E39A95F1F70000F4CF811119
:1009F0008091C600089587589E4FFC01808108951C
:100A000087589E4FFC0160830895CF93DF93DA01EE
:100A1000EB011A161B0654F4E991E227E80FF92FAF
:100A2000F11DE758FF4F20811197F3CF822FDF91FF
:100A3000CF910895CF93DF9300D0CDB7DEB787581D
:100A40009E4FFC018081882309F181E2898380E344
:100A50008A838BE892E00E94C70481E792E00E94BB
:100A6000C70442E0BE016F5F7F4F84E40E945B01D8
:100A7000FFEF2BE782E9F15020408040E1F700C012
:100A800000000F900F90DF91CF9108958CE2898341
:100A900086E08A838CEA92E00E94C70482E792E0B3
:100AA000DECF8F929F92AF92BF92CF92DF92EF9262
:100AB000FF920F931F93CF93DF9300D0CDB7DEB794
:100AC0008C0180EE89831A8242E0BE016F5F7F4F06
:100AD00084E40E945B01680188E6C80ED11C46E0F0
:100AE000B60184E40E947901F801E858FF4FB08014
:100AF0002B2D42E050E0B601C8010E940505F80127
:100B0000E659FF4F908189137AC07801EBE6EE0E2B
:100B1000F11C2B2D42E050E0B701C8010E940505F1
:100B2000F801E359FF4F9081891369C0F701E08014
:100B3000F180F6016081718176276727762790E042
:100B400080E00E94380920E03FEF4FE757E40E9421
:100B5000900820E030E04FE253E40E94EF0920E0EB
:100B600030E044E352E40E941E080E9409094B0150
:100B7000F801EC58FF4F718360836801F6E7CF0EF0
:100B8000D11CFE24EF24FE24B70190E080E00E94F7
:100B9000380920E03FEF4FE757E40E94900820E03B
:100BA00030E048EC52E40E94EF090E940909F60186
:100BB00071836083B40190E080E00E943809AB014A
:100BC000BC01C8010E942804F6016081718190E097
:100BD00080E00E943809AB01BC01C8010E945004AA
:100BE0000F900F90DF91CF911F910F91FF90EF9099
:100BF000DF90CF90BF90AF909F908F9008958DEC35
:100C000092E00E94C704ECCF8F929F92AF92BF9266
:100C1000EF92FF920F931F93CF93DF93EC017C0130
:100C200028E6E20EF11C46E0B70184E40E94790157
:100C3000FE01E858FF4FB0802B2D42E050E0B70195
:100C4000CE010E940505FE01E659FF4F90818913F0
:100C50007EC08E0105591F4F2B2D42E050E0B80198
:100C6000CE010E940505FE01E359FF4F90818913D3
:100C70006EC0F80100811181F701608171817627D2
:100C80006727762790E080E00E94380920E03FEF58
:100C90004FE757E40E94900820E030E04FE253E431
:100CA0000E94EF0920E030E044E352E40E941E0875
:100CB0000E9409094B01FE01EC58FF4F71836083CC
:100CC0007E01F6E7EF0EF11C102701271027B8016F
:100CD00090E080E00E94380920E03FEF4FE757E4C2
:100CE0000E94900820E030E048EC52E40E94EF09B6
:100CF0000E940909F70171836083B40190E080E0EC
:100D00000E943809AB01BC01CE010E942804F70102
:100D10006081718190E080E00E943809AB01BC01E4
:100D2000CE010E945004FFEF27EA81E6F1502040F7
:100D30008040E1F700C00000DF91CF911F910F913B
:100D4000FF90EF90BF90AF909F908F9008958DECA3
:100D500092E0DF91CF911F910F91FF90EF90BF90A4
:100D6000AF909F908F900C94C704CF93DF93CDB733
:100D7000DEB7CB52D2400FB6F894DEBF0FBECDBF68
:100D8000F8940E94AF0480E895E20E94F400789401
:100D9000C95DDD4F1882C752D2408FEFEA968FAF00
:100DA000EA9780E0E0E0F1E0DE01A658BF4F019055
:100DB0000D928A95E1F781E0C658DE4F8883CA57C5
:100DC000D14040E065E270E0CE0185589E4F0E9420
:100DD0009E0121E045E250E064E670E0CE018C5FC8
:100DE0009D4F0E94EC00209A219ABE01695D7D4FC3
:100DF000CE0185589E4F0E94B90183E08F93812CCC
:100E0000A12CC12C80EEE82E00E020E040E468E454
:100E1000CE0185589E4F0E94C8026EE372E0CE015B
:100E200001960E941C0464E472E0CE0185589E4F36
:100E30000E941C0461E0CE0101960E940005CE01D3
:100E400001960E941A050F904424439493E5692E5D
:100E500092E0792E2AE0522E8E01035E1D4F312C36
:100E6000212CCE0101960E945105CE0185589E4F3E
:100E70000E947502CE0101960E9483044B015C0121
:100E8000CE0101960E9496046B017C01CE0185582B
:100E90009E4F0E948304C85DDD4F688379838A83F7
:100EA0009B83C852D240BE01695D7D4FCE018558FB
:100EB0009E4F0E94B90120E030E044E352E4C501B6
:100EC000B4010E94EA091816F4F020E030E040E294
:100ED00051E4C501B4010E948B0887FD14C020E0D5
:100EE00030E044EB52E4C701B6010E94EA0918164B
:100EF00054F020E030E040E252E4C701B6010E9425
:100F00008B0887FF05C0C95DDD4F4882C752D240BC
:100F1000C95DDD4F8881C752D240882379F0AE0188
:100F20004C5F5D4FBE0165587E4FCE0101960E9419
:100F30001103C95DDD4F8883C752D2408FEF281A55
:100F4000380A88E492E00E94D8043F922F927F9260
:100F50006F921F925F921F930F930E946B0AC801BA
:100F60000E94D80486E592E00E94D804C501B4012D
:100F70000E9409097F936F937F926F921F925F92F5
:100F80001F930F930E946B0AC8010E94D80481E648
:100F900092E00E94D804C701B6010E9409097F931C
:100FA0006F937F926F921F925F921F930F930E9495
:100FB0006B0AC8010E94D80483E792E00E94D8041B
:100FC000C85DDD4F688179818A819B81C852D2409A
:100FD0000E9409097F936F937F926F921F925F9295
:100FE0001F930F930E946B0A0FB6F894DEBF0FBEDB
:100FF000CDBFC8010E94D80488E892E00E94C704CF
:101000009AE02916310409F02CCFCE0101960E94F6
:101010007804CE0185589E4F0E94780420CFA29F6D
:10102000B001B39FC001A39F700D811D1124911DBC
:10103000B29F700D811D1124911D08955058BB273A
:10104000AA270E9436080C94B0090E94A20938F021
:101050000E94A90920F039F49F3F19F426F40C945A
:101060009F090EF4E095E7FB0C949909E92F0E9483
:10107000C10958F3BA17620773078407950720F070
:1010800079F4A6F50C94E3090EF4E0950B2EBA2F33
:10109000A02D0B01B90190010C01CA01A00111247E
:1010A000FF27591B99F0593F50F4503E68F11A162A
:1010B000F040A22F232F342F4427585FF3CF4695BB
:1010C00037952795A795F0405395C9F77EF41F16DD
:1010D000BA0B620B730B840BBAF09150A1F0FF0FA7
:1010E000BB1F661F771F881FC2F70EC0BA0F621F93
:1010F000731F841F48F4879577956795B795F79583
:101100009E3F08F0B0CF9395880F08F09927EE0F17
:101110009795879508950E94750908F481E00895D0
:101120000E94A4080C94B0090E94A90958F00E94DA
:10113000A20940F029F45F3F29F00C94990951115C
:101140000C94E4090C949F090E94C10968F3992347
:10115000B1F3552391F3951B550BBB27AA276217B3
:101160007307840738F09F5F5F4F220F331F441FC0
:10117000AA1FA9F335D00E2E3AF0E0E832D09150F4
:101180005040E695001CCAF72BD0FE2F29D0660FE1
:10119000771F881FBB1F261737074807AB07B0E824
:1011A00009F0BB0B802DBF01FF2793585F4F3AF02A
:1011B0009E3F510578F00C9499090C94E4095F3F27
:1011C000E4F3983ED4F3869577956795B795F795B0
:1011D0009F5FC9F7880F911D9695879597F9089598
:1011E000E1E0660F771F881FBB1F62177307840734
:1011F000BA0720F0621B730B840BBA0BEE1F88F743
:10120000E09508950E9409096894B1110C94E409CD
:1012100008950E94C90988F09F5798F0B92F99271F
:10122000B751B0F0E1F0660F771F881F991F1AF0D1
:10123000BA95C9F714C0B13091F00E94E309B1E04A
:1012400008950C94E309672F782F8827B85F39F049
:10125000B93FCCF3869577956795B395D9F73EF46A
:1012600090958095709561957F4F8F4F9F4F089512
:10127000E89409C097FB3EF4909580957095619530
:101280007F4F8F4F9F4F9923A9F0F92F96E9BB27E6
:101290009395F695879577956795B795F111F8CF62
:1012A000FAF4BB0F11F460FF1BC06F5F7F4F8F4FCD
:1012B0009F4F16C0882311F096E911C0772321F0C3
:1012C0009EE8872F762F05C0662371F096E8862F5B
:1012D00070E060E02AF09A95660F771F881FDAF7B2
:1012E000880F9695879597F90895990F0008550FDF
:1012F000AA0BE0E8FEEF16161706E807F907C0F09C
:1013000012161306E407F50798F0621B730B840BA3
:10131000950B39F40A2661F0232B242B252B21F47D
:1013200008950A2609F4A140A6958FEF811D811D1D
:10133000089597F99F6780E870E060E008959FEF57
:1013400080EC089500240A9416161706180609065C
:10135000089500240A94121613061406050608952B
:10136000092E0394000C11F4882352F0BB0F40F4B3
:10137000BF2B11F460FF04C06F5F7F4F8F4F9F4FF3
:10138000089557FD9058440F551F59F05F3F71F075
:101390004795880F97FB991F61F09F3F79F08795DC
:1013A0000895121613061406551FF2CF4695F1DF65
:1013B00008C0161617061806991FF1CF86957105F5
:1013C000610508940895E894BB2766277727CB0129
:1013D00097F908950E94750908F48FEF08950E9407
:1013E000020A0C94B0090E94A20938F00E94A909CF
:1013F00020F0952311F00C9499090C949F09112465
:101400000C94E4090E94C10970F3959FC1F3950FF4
:1014100050E0551F629FF001729FBB27F00DB11D78
:10142000639FAA27F00DB11DAA1F649F6627B00D08
:10143000A11D661F829F2227B00DA11D621F739FF1
:10144000B00DA11D621F839FA00D611D221F749FFF
:101450003327A00D611D231F849F600D211D822F46
:10146000762F6A2F11249F5750409AF0F1F088236D
:101470004AF0EE0FFF1FBB1F661F771F881F91509A
:101480005040A9F79E3F510580F00C9499090C94A7
:10149000E4095F3FE4F3983ED4F38695779567952A
:1014A000B795F795E7959F5FC1F7FE2B880F911DC4
:1014B0009695879597F90895FB01DC0141505040BE
:1014C00048F001900D920020C9F701C01D924150D3
:1014D0005040E0F70895AEE0B0E0E1E7FAE00C94A8
:1014E0006D0D0D891E898F89988D26E02C831A83B6
:1014F000098397FF02C080E090E801979E838D8367
:10150000AE01455E5F4F698D7A8DCE0101960E94D6
:101510009B0A4D815E8157FD0AC02F813885421795
:1015200053070CF49A01020F131FF80110822E9634
:10153000E4E00C94890DABE0B0E0E1EAFAE00C9451
:101540005F0D7C013B018A01FC01178216828381B9
:1015500081FFC8C1CE0101965C01F7019381F301BF
:1015600093FD859193FF81913F01882309F453C135
:10157000853239F493FD859193FF81913F01853246
:1015800029F4B70190E00E948B0CE7CF912C212C1D
:10159000312CFFE1F31538F08B3211F190F48032E9
:1015A00009F1833229F137FC3CC020ED280F2A30A5
:1015B00050F536FE20C08AE0989E200D1124922E10
:1015C00006C08D3291F0803371F7689430F8F301E2
:1015D00093FD859193FF81913F018111DACF21C065
:1015E000689431F8689432F8F2CF689433F8EFCF0A
:1015F000689434F8ECCFEAE02E9E200D1124222EC0
:10160000689435F8E4CF8E3229F436FC04C168942E
:1016100036F8DDCF8C3619F4689437F8D8CF883691
:10162000B1F2982F9F7D95549330E0F08336A1F16D
:101630008337C1F1833509F063C02801F2E04F0E12
:10164000511CF801C080D180692D70E036FC02C0C9
:101650006FEF7FEFC6010E94750C4C01689437F85C
:1016600082010AC00C5F1F4FFFE3F9838824839433
:10167000912C6501E89437F833FE2DC0522C81146B
:10168000910471F5552009F468CFB70180E290E02C
:101690000E948B0C5A94F6CFF801808189830E5FEB
:1016A0001F4FE4CF2801F2E04F0E511CF801C0801B
:1016B000D180692D70E036FC02C06FEF7FEFC6016C
:1016C0000E94800C4C018201D5CFB70180E290E0EE
:1016D0000E948B0C2A942814190409F0B0F7CECF7D
:1016E000F60137FC859137FE81916F01B70190E0DB
:1016F0000E948B0C51105A94F1E08F1A9108BFCFC1
:10170000843619F0893609F077C0F80137FE6BC0CE
:1017100060817181828193810C5F1F4FF32DFF7671
:101720003F2E97FF09C090958095709561957F4FEA
:101730008F4F9F4F689437F82AE030E0A5010E9450
:10174000BB0CC82ECA188C2C432C36FE0CC0E89457
:1017500040F8C91440F434FE05C032FC03C0F32D38
:10176000FE7E4F2E892C44FE95C0FE01EC0DF11D2E
:101770008081803309F087C0242D297E422E842D5C
:101780008870582E43FC95C040FE8FC09C2C82145C
:1017900018F42C0C922C981844FE91C0B70180E3E9
:1017A00090E00E948B0C42FE09C088E790E041FE69
:1017B00002C088E590E0B7010E948B0CC91408F4C0
:1017C0008AC0CA94D12C9FEFC91AD90ACA0CDB1C53
:1017D000F60182916F01B70190E00E948B0CAC146E
:1017E000BD04B1F74FCF60817181072E000C880BCB
:1017F000990B0E5F1F4F92CFD32CE894D4F82AE0B8
:1018000030E0853739F1232D297FD22E8F3601F133
:1018100048F48835A9F0F701868197812B96E2E19B
:101820000C947B0D803749F08837A9F7D4FE02C0AD
:101830006894D2F820E130E00DC06894D4F8F6CF77
:1018400034FE03C0822F8660D82E20E132E002C031
:1018500028E030E0F801D7FE0FC0608171818281FD
:1018600093810C5F1F4FA5010E94BB0CC82ECA18A4
:101870003D2CE89437F867CF6081718190E080E07B
:101880000E5F1F4FF0CF42FC02C0839478CF839449
:10189000839475CF842D867809F471CFF6CFB70184
:1018A00080E290E00E948B0C83948214C0F3512C50
:1018B00073CF522C5818821408F46ECFF8CF842DB1
:1018C000867809F47BCF8BE241FE80E247FC8DE213
:1018D000B70190E071CFB70180E390E00E948B0CDC
:1018E0009A946CCF8FEF9FEF99CFFC0105906150D8
:1018F00070400110D8F7809590958E0F9F1F089526
:10190000FC016150704001900110D8F780959095CE
:101910008E0F9F1F08950F931F93CF93DF93182F60
:10192000092FEB018B8181FD09C01FEF0FEF812F84
:10193000902FDF91CF911F910F91089582FF14C0D6
:101940002E813F818C819D81281739073CF4E881E5
:10195000F981CF0101969983888310838E819F81BD
:1019600001969F838E83E3CFE885F985812F0995C2
:10197000892BA1F3DACFFA01AA27283051F12031BF
:1019800081F1E8946F936E7F6E5F7F4F8F4F9F4F13
:10199000AF4FB1E03ED0B4E03CD0670F781F891F55
:1019A0009A1FA11D680F791F8A1F911DA11D6A0F23
:1019B000711D811D911DA11D20D009F468943F91D6
:1019C0002AE0269F11243019305D3193DEF6CF01D5
:1019D0000895462F4770405D4193B3E00FD0C9F79B
:1019E000F6CF462F4F70405D4A3318F0495D31FD08
:1019F0004052419302D0A9F7EACFB4E0A69597955B
:101A0000879577956795BA95C9F700976105710530
:101A100008959B01AC010A2E06945795479537957A
:101A20002795BA95C9F7620F731F841F951FA01DD4
:101A30000895F999FECF92BD81BDF89A992780B596
:101A40000895A8E1B0E042E050E00C94510DDC01B3
:101A5000A40FB51F4150504048F0CB01840F951F93
:101A60002E910E94380D41505040D0F70895262FF6
:101A7000F999FECF92BD81BDF89A019700B4021684
:101A800039F01FBA20BD0FB6F894FA9AF99A0FBE32
:101A900008950196272F0E94380D0C94370DDC0114
:101AA000CB01FC01F999FECF06C0F2BDE1BDF89A69
:101AB000319600B40D9241505040B8F708952F92DE
:101AC0003F924F925F926F927F928F929F92AF92CE
:101AD000BF92CF92DF92EF92FF920F931F93CF931B
:101AE000DF93CDB7DEB7CA1BDB0B0FB6F894DEBFB2
:101AF0000FBECDBF09942A88398848885F846E84D8
:101B00007D848C849B84AA84B984C884DF80EE8021
:101B1000FD800C811B81AA81B981CE0FD11D0FB62A
:101B2000F894DEBF0FBECDBFED010895F894FFCF4E
:101B300000316253C4F5A697B988DBEA7D4C1F2EAD
:101B40004372211087B6E5D4FACB98A93E0F5C6D9D
:101B500086B7E4D5427320113F0E5D6CFBCA99A88D
:101B6000C5F4A796013063527C4D1E2FB889DAEB7D
:101B70003D0C5F6EF9C89BAA84B5E6D7407122136D
:101B80007E4F1C2DBA8BD8E9C7F6A594033261505D
:101B9000BB8AD9E87F4E1D2C02336051C6F7A4954D
:101BA000F8C99AAB3C0D5E6F4170231285B4E7D63D
:101BB0007A4B1829BE8FDCEDC3F2A190073665542D
:101BC00039085B6AFDCC9FAE80B1E2D3447526171D
:101BD000FCCD9EAF38095A6B4574271681B0E3D20D
:101BE000BF8EDDEC7B4A192806376455C2F3A091FD
:101BF0004776251483B2E1D0FECF9CAD3A0B5869ED
:101C000004356657C0F1A293BD8CDFEE79481B2ADC
:101C1000C1F0A3920534675678491A2BBC8DDEEFCC
:101C200082B3E0D1467724153B0A5968FFCE9DACBC
:101C300054696D656F75742E006572726F207265E0
:101C4000636562656E646F206461646F73003D3D1F
:101C50003D20414C455254412044452056414C4F73
:101C600052204352495449434F203D3D3D00534883
:101C7000543330004C44520041717569736963619B
:101C80006F20002575003A202054656D70203D209E
:101C90000020C2B043207C20556D696461646520DA
:101CA0003D20002025207C204C756D696E6F736986
:101CB00064616465203D20002025002D2D2D2050DD
:101CC0006572696F646963204171756973697469CC
:101CD0006F6E204D6F6465202D2D2D002D2D2D2034
:101CE0004F6E652053686F74204171756973697414
:101CF000696F6E204D6F6465202D2D2D00486F7526
:101D000076652070726F626C656D61206E6F204326
:101D100052432C206E616F20656820706F73736969
:101D200076656C207072696E74617220726573756D
:061D30006C7461646F0099
:00000001FF
