:100000000C9434000C9449000C9449000C94490061
:100010000C9449000C9449000C9449000C9449003C
:100020000C9449000C9449000C9449000C9449002C
:100030000C9449000C9449000C9449000C9449001C
:100040000C9449000C9449000C9449000C9449000C
:100050000C9449000C9449000C9449000C944900FC
:100060000C9449000C94490011241FBECFEFD8E036
:10007000DEBFCDBF13E0A0E0B1E0ECE0FDE102C0E7
:1000800005900D92AE33B107D9F70E94B5060C94D6
:10009000840E0C9400006F927F928F92AF92CF9259
:1000A000EF92FF920F931F93CF93DF9300D01F9295
:1000B000CDB7DEB73C01F62E122F81E08983022BEB
:1000C000402B4A838989882AA828CA28EC28EB82F1
:1000D00043E0BE016F5F7F4F8F2D0E945B0141E0C7
:1000E00070E060E08F2D0E945B0180E098E11123B9
:1000F00011F080E090E1F301918380830F900F90E5
:100100000F90DF91CF911F910F91FF90EF90CF90C3
:10011000AF908F907F906F9008950F931F93CF9320
:10012000DF9300D0CDB7DEB78C01862F42E0BE0151
:100130006F5F7F4F0E94790129813A8132272327FF
:100140003227F801A081B1810E94FD082FE0969529
:100150008795779567952A95D1F70F900F90DF9146
:10016000CF911F910F910895CF93DF93EC0143E15D
:1001700050E00E944A0B1B8ADF91CF9108950895A9
:10018000FC01848995890895FC01758B648B089521
:10019000DC015696ED91FC915797908158968C9181
:1001A00021E030E001C0220F8A95EAF7892F822BE7
:1001B00080830895DC015696ED91FC91579720813C
:1001C00058963C9181E090E001C0880F3A95EAF79B
:1001D0008095822380830895FC01758B648B578BF7
:1001E000468B208F0C94DA001092B9008039914030
:1001F00021F48CE08093B800089588E4FBCF88EC6C
:100200009091BC0097FD08C0882341F0815095E390
:100210009A95F1F70000F4CF811106C080E092E0DA
:100220000E94C70481E0089580E0089584EA8093E5
:10023000BC000C94FF0084E98093BC0085E690919B
:10024000BC0094FF07C0815029F095E39A95F1F71F
:100250000000F5CF08958093BB0084E88093BC0034
:100260000C94FF00CF93C82F0E9416018C2F880F8B
:10027000CF910C942B01CF93C82F0E941601CC0F65
:10028000C160C093BB0084EC8093BC00CF910C9400
:10029000FF0081110BC084E88093BC000E94FF0026
:1002A000811106C08091BB0090E0089584ECF4CFEA
:1002B00080E090E80895EF92FF920F931F93CF9301
:1002C000DF937B01042F0E943201E70110E0CE0191
:1002D0008E199F098017910724F489910E942B01A0
:1002E000F6CFDF91CF911F910F91FF90EF900C947B
:1002F0001B01FF920F931F93CF93DF93F62E072FCF
:10030000142F0E943B01CF2DD02F112371F01150DB
:1003100081E009F480E00E944901811520E89207FC
:1003200059F489E092E00E94C704DF91CF911F91B8
:100330000F91FF900C941B018993E7CFCF93DF932C
:10034000EC01FC01E859FF4F1182108213821282E6
:1003500084599F4F0E94E002CB57DF4F80E090E02E
:10036000A8E4B2E488839983AA83BB83DF91CF9109
:1003700008958F929F92AF92BF92EF92FF920F9348
:100380001F93CF93DF93EC017B018C0104591F4F26
:10039000C8010E94ED02CB57DF4F88809980AA8068
:1003A000BB8020E030E040E752E4C501B4010E9488
:1003B000790987FF17C0A501940160E070E080E72C
:1003C00092E40E940C090E94F009C801DF91CF91CC
:1003D0001F910F91FF90EF90BF90AF909F908F90E3
:1003E0000C94E90281E0F7018083DF91CF911F91A6
:1003F0000F91FF90EF90BF90AF909F908F900895D6
:100400004F925F926F927F928F929F92AF92BF9224
:10041000CF92DF92EF92FF926A017B0120E030E001
:10042000A901CB01B6010E94790918160CF059C038
:1004300020E030E040E85FE3C701B6010E940C090C
:100440004B015C0120E030E040E85FE3C701B6010A
:100450000E940D099B01AC01C501B4010E947E09F7
:100460006B017C01AC019B010E94DD0A4B015C0128
:10047000AC019B01C701B6010E94DD0A20E030E01B
:1004800040E450E40E947E09A70196010E940D09F4
:100490002B013C01A5019401C501B4010E94DD0AB4
:1004A000A70196010E94DD0A20E030E040EA50E416
:1004B0000E947E099B01AC01C301B2010E940D099B
:1004C0009B01AC010E940D09FF90EF90DF90CF904F
:1004D000BF90AF909F908F907F906F905F904F9064
:1004E000089560E070E0CB01EFCFEF92FF920F93A1
:1004F0001F93CF93DF93EC017C0188E6E80EF11C9B
:100500006AE4C7010E948D000E94260A20E030E0C4
:10051000A9010E9479098E010B571F4F18169CF0F4
:10052000F8011082118212821382F80140815181F8
:1005300062817381CE01DF91CF911F910F91FF9066
:10054000EF900C9428046AE4C7010E948D000E9479
:10055000260A20E030E04AE754E40E947E09AB011D
:10056000BC01CE010E94000220E030E040E85FE3E1
:100570000E940D099B01AC0160E070E088EC92E400
:100580000E947E09F8016083718382839383CDCFBB
:100590008F92AF92CF92EF920F93CF93DF93CDB71D
:1005A000DEB73A853F9388599F4F0E944B000F90CA
:1005B000DF91CF910F91EF90CF90AF908F900895F2
:1005C000FC01778B668B408F0895FC0184899589A7
:1005D0000895FC01758B648B0895DC015696ED91AE
:1005E000FC915797908158968C9121E030E001C0A2
:1005F000220F8A95EAF7892F822B80830895DC01E8
:100600005696ED91FC915797208158963C9181E048
:1006100090E001C0880F3A95EAF7809582238083A5
:100620000895EF92FF920F931F93CF93DF937C0176
:100630008B01EA018EE192E00E94C704B801C70174
:100640000E94C603C7010E947804C8010E94780472
:10065000CE010E94C8008AE090E02FEF33ED40E326
:10066000215030404040E1F700C000000197A9F759
:10067000CE010E94DA0080E0DF91CF911F910F91AF
:10068000FF90EF900895FC01108211821282138274
:10069000148215821682178210861186128613869E
:1006A0000895FC0140835183628373830895FC01A4
:1006B00044835583668377830895FC01408751877F
:1006C000628773870895FC016081718182819381C3
:1006D0000895FC0164817581868197810895FC01EC
:1006E00060857185828593850895FB0140815181E4
:1006F00062817381DC014D935D936D937C931397BD
:10070000448155816681778114964D935D936D93F5
:100710007C9317974085518562857385FC014087DE
:100720005187628773870895FC01DB014D915D91CC
:100730006D917C91139740835183628373831496E8
:100740004D915D916D917C9117974483558366839C
:10075000778318968D919D910D90BC91A02D8087E7
:100760009187A287B38708958AE592E00E94070ED9
:10077000853A59F070E060E080E090E00E94370E2A
:1007800065EA8AE592E00C94250E0895CF92DF92F7
:10079000EF92FF920F931F93CF93DF93CDB7DEB706
:1007A0002C970FB6F894DEBF0FBECDBF7C016B0156
:1007B0000E94B40380E090E00E940F0E8C01C2976B
:1007C00010F010E000E0C7010E94830469837A837F
:1007D0008B839C83C7010E9496046D837E838F83E5
:1007E0009887C6010E94830469877A878B879C87D4
:1007F0008CE0809FB001819F700D11246E5F7F4F50
:100800004CE050E0CE0101960E94150EB8016F5FDA
:100810007F4F80E090E00E94370E2C960FB6F89440
:10082000DEBF0FBECDBFDF91CF911F910F91FF9023
:10083000EF90DF90CF900895CF93DF93EC0143E1E9
:1008400050E00E944A0B1B8ADF91CF9108950895D2
:10085000FC01EC59FF4F208131812A3031058CF4A5
:10086000D9011196B183A0832B5F3F4F220F331F15
:10087000220F331F280F391FF901408351836283F0
:10088000738308956B5F7F4F660F771F660F771F27
:10089000860F971FFC016081718182819381089589
:1008A000FC01EA59FF4F208131812A3031058CF457
:1008B000D9011196B183A083215F3F4F220F331FCF
:1008C000220F331F280F391FF901408351836283A0
:1008D00073830895615F7F4F660F771F660F771FE1
:1008E000860F971FFC016081718182819381089539
:1008F000FC01EC59FF4F118210828A599F4FFC0175
:10090000118210820895FC01EC59FF4F2081318142
:100910002B5F3F4F220F331F220F331F820F931F76
:10092000FC0160817181828193810895FC01EA5903
:10093000FF4F20813181215F3F4F220F331F220F54
:10094000331F820F931FFC0160817181828193812B
:1009500008958C599F4FFC018081918108951092D8
:10096000C50080E18093C400E0ECF0E0808182600B
:10097000808388E18093C1008EE08093C200089557
:100980009091C00095FFFCCF8093C6000895CF934F
:10099000DF93EC018991882319F00E94C004FACFFB
:1009A0008DE00E94C0048AE0DF91CF910C94C004D6
:1009B000CF93DF93EC018991882319F00E94C00442
:1009C000FACFDF91CF91089587E36A3008F480E38E
:1009D000860F089588EC9091C00097FD08C0882389
:1009E00049F0815095E39A95F1F70000F4CF811119
:1009F0008091C600089587589E4FFC01808108951C
:100A000087589E4FFC0160830895CF93DF93DA01EE
:100A1000EB011A161B0654F4E991E227E80FF92FAF
:100A2000F11DE758FF4F20811197F3CF822FDF91FF
:100A3000CF910895CF93DF9300D0CDB7DEB787581D
:100A40009E4FFC018081882309F181E2898380E344
:100A50008A8382EC92E00E94C70481E792E00E94C0
:100A6000C70442E0BE016F5F7F4F84E40E945B01D8
:100A7000FFEF2BE782E9F15020408040E1F700C012
:100A800000000F900F90DF91CF9108958CE2898341
:100A900086E08A8383EE92E00E94C70482E792E0B8
:100AA000DECF8F929F92AF92BF92CF92DF92EF9262
:100AB000FF920F931F93CF93DF9300D0CDB7DEB794
:100AC0008C0180EE89831A8242E0BE016F5F7F4F06
:100AD00084E40E945B01680188E6C80ED11C46E0F0
:100AE000B60184E40E947901F801E858FF4FB08014
:100AF0002B2D42E050E0B601C8010E940505F80127
:100B0000E659FF4F908189137AC07801EBE6EE0E2B
:100B1000F11C2B2D42E050E0B701C8010E940505F1
:100B2000F801E359FF4F9081891369C0F701E08014
:100B3000F180F6016081718176276727762790E042
:100B400080E00E94260A20E03FEF4FE757E40E9432
:100B50007E0920E030E04FE253E40E94DD0A20E00D
:100B600030E044E352E40E940C090E94F7094B0173
:100B7000F801EC58FF4F718360836801F6E7CF0EF0
:100B8000D11CFE24EF24FE24B70190E080E00E94F7
:100B9000260A20E03FEF4FE757E40E947E0920E05D
:100BA00030E048EC52E40E94DD0A0E94F709F601A9
:100BB00071836083B40190E080E00E94260AAB015B
:100BC000BC01C8010E942804F6016081718190E097
:100BD00080E00E94260AAB01BC01C8010E945004BB
:100BE0000F900F90DF91CF911F910F91FF90EF9099
:100BF000DF90CF90BF90AF909F908F90089584E04A
:100C000093E00E94C704ECCF8F929F92AF92BF9265
:100C1000EF92FF920F931F93CF93DF93EC017C0130
:100C200028E6E20EF11C46E0B70184E40E94790157
:100C3000FE01E858FF4FB0802B2D42E050E0B70195
:100C4000CE010E940505FE01E659FF4F90818913F0
:100C50007EC08E0105591F4F2B2D42E050E0B80198
:100C6000CE010E940505FE01E359FF4F90818913D3
:100C70006EC0F80100811181F701608171817627D2
:100C80006727762790E080E00E94260A20E03FEF69
:100C90004FE757E40E947E0920E030E04FE253E442
:100CA0000E94DD0A20E030E044E352E40E940C0997
:100CB0000E94F7094B01FE01EC58FF4F71836083DE
:100CC0007E01F6E7EF0EF11C102701271027B8016F
:100CD00090E080E00E94260A20E03FEF4FE757E4D3
:100CE0000E947E0920E030E048EC52E40E94DD0AD8
:100CF0000E94F709F70171836083B40190E080E0FE
:100D00000E94260AAB01BC01CE010E942804F70113
:100D10006081718190E080E00E94260AAB01BC01F5
:100D2000CE010E945004FFEF27EA81E6F1502040F7
:100D30008040E1F700C00000DF91CF911F910F913B
:100D4000FF90EF90BF90AF909F908F90089584E0B8
:100D500093E0DF91CF911F910F91FF90EF90BF90A3
:100D6000AF909F908F900C94C704CF93DF93CDB733
:100D7000DEB7C35AD2400FB6F894DEBF0FBECDBF68
:100D8000F8940E94AF0480E895E20E94F400789401
:100D9000C156DD4F1882CF59D2408FEFEA968FAF00
:100DA000EA9780E0E0E0F1E0DE01A658BF4F019055
:100DB0000D928A95E1F781E0C658DE4F8883CA57C5
:100DC000D14040E065E270E0CE0185589E4F0E9420
:100DD0009E0121E045E250E064E670E0CE018458D7
:100DE0009D4F0E94EC00209A219ABE0161567D4FD2
:100DF000CE0185589E4F0E94B90183E08F93812CCC
:100E0000A12CC12C80EEE82E00E020E040E468E454
:100E1000CE0185589E4F0E94C8026EE372E0CE015B
:100E200001960E941C0464E472E0CE0185589E4F36
:100E30000E941C0461E0CE0101960E940005CE01D3
:100E400001960E941A050F901E012BE6221A2DEF23
:100E5000320A10E000E0CE0101960E945105CE0159
:100E600085589E4F0E947502CE0101960E94830410
:100E70004B015C01CE0101960E9496046B017C013E
:100E8000CE0185589E4F0E9483042B013C01BE0178
:100E900061567D4FCE0185589E4F0E94B90120E0DA
:100EA00030E044E352E4C501B4010E94D80A1816A8
:100EB000F4F020E030E040E251E4C501B4010E94CA
:100EC000790987FD14C020E030E044EB52E4C7010B
:100ED000B6010E94D80A181654F020E030E040E233
:100EE00052E4C701B6010E94790987FF06C081E07C
:100EF000C156DD4F8883CF59D240C156DD4F88811E
:100F0000CF59D240882379F0AE0144585D4FBE01DD
:100F100065587E4FCE0101960E941103C156DD4FE8
:100F20008883CF59D2400F5F1F4F88E492E00E9420
:100F3000D8041F930F93E3E5F2E0FF93EF931F9222
:100F40008AE08F933F922F920E94590BC1010E9419
:100F5000D80486E592E00E94D804C501B4010E943D
:100F6000F7097F936F93E3E5F2E0FF93EF931F920E
:100F70008AE08F933F922F920E94590BC1010E94E9
:100F8000D80481E692E00E94D804C701B6010E940D
:100F9000F7097F936F93E3E5F2E0FF93EF931F92DE
:100FA0008AE08F933F922F920E94590BC1010E94B9
:100FB000D80483E792E00E94D804C301B2010E94E2
:100FC000F7097F936F93E3E5F2E0FF93EF931F92AE
:100FD0008AE08F933F922F920E94590B0FB6F8949C
:100FE000DEBF0FBECDBFC1010E94D80488E892E0E9
:100FF0000E94C7040A30110509F02DCF6E01FCEAEA
:10100000CF1AFDEFDF0A7E0124EDE21A2DEFF20A7E
:101010002E018CEF481A8DEF580A32014701560114
:1010200010E000E0B801CE0101960E944204F501F3
:1010300061937193819391935F01B801CE01019601
:101040000E946A04F40161937193819391934F011B
:10105000B801CE0185589E4F0E944204F30161936E
:101060007193819391933F010F5F1F4F0A301105D8
:10107000C9F68601085D1F4F60E070E0CB01F60104
:1010800021913191419151916F010E940D09C0163A
:10109000D106A9F720E030E040E251E40E947E0949
:1010A000C056DD4F688379838A839B83C05AD240C0
:1010B0008701085D1F4F60E070E0CB01F7012191CF
:1010C0003191419151917F010E940D09E016F10685
:1010D000A9F720E030E040E251E40E947E094B0194
:1010E0005C018201085D1F4FC12CD12C7601F201F9
:1010F00021913191419151912F01C701B6010E9477
:101100000D096B017C010415150589F782E792E052
:101110000E94C7048BE892E00E94C7048FEA92E025
:101120000E94C70489E592E00E94D804C056DD4FB2
:10113000688179818A819B81C05AD2400E94F709D7
:101140007F936F9383E592E09F938F931F92FAE0D2
:10115000FF933F922F920E94590BC1010E94D80425
:1011600081E692E00E94D804C501B4010E94F7090B
:101170007F936F9383E592E09F938F931F92FAE0A2
:10118000FF933F922F920E94590BC1010E94D804F5
:1011900083E792E00E94D80420E030E040E251E48E
:1011A000C701B6010E947E090E94F7097F936F93E1
:1011B00083E592E09F938F931F92FAE0FF933F9213
:1011C0002F920E94590BC1010E94D80488E892E036
:1011D0000E94C70482E792E00E94C704CE010196F4
:1011E0000E947804CE0185589E4F0E9478040FB665
:1011F000F894DEBF0FBECDBF2CCEA29FB001B39F2F
:10120000C001A39F700D811D1124911DB29F700D0F
:10121000811D1124911D08955058BB27AA270E94B3
:1012200024090C949E0A0E94900A38F00E94970AA2
:1012300020F039F49F3F19F426F40C948D0A0EF433
:10124000E095E7FB0C94870AE92F0E94AF0A58F358
:10125000BA17620773078407950720F079F4A6F59B
:101260000C94D10A0EF4E0950B2EBA2FA02D0B0191
:10127000B90190010C01CA01A0011124FF27591BDB
:1012800099F0593F50F4503E68F11A16F040A22FE1
:10129000232F342F4427585FF3CF46953795279552
:1012A000A795F0405395C9F77EF41F16BA0B620B51
:1012B000730B840BBAF09150A1F0FF0FBB1F661F98
:1012C000771F881FC2F70EC0BA0F621F731F841FDB
:1012D00048F4879577956795B795F7959E3F08F001
:1012E000B0CF9395880F08F09927EE0F97958795C3
:1012F00008950E94630A08F481E008950E9492090B
:101300000C949E0A0E94970A58F00E94900A40F09E
:1013100029F45F3F29F00C94870A51110C94D20AEA
:101320000C948D0A0E94AF0A68F39923B1F35523F8
:1013300091F3951B550BBB27AA27621773078407E8
:1013400038F09F5F5F4F220F331F441FAA1FA9F37E
:1013500035D00E2E3AF0E0E832D091505040E6956C
:10136000001CCAF72BD0FE2F29D0660F771F881FCD
:10137000BB1F261737074807AB07B0E809F0BB0BC0
:10138000802DBF01FF2793585F4F3AF09E3F5105D4
:1013900078F00C94870A0C94D20A5F3FE4F3983EED
:1013A000D4F3869577956795B795F7959F5FC9F7BD
:1013B000880F911D9695879597F90895E1E0660F3E
:1013C000771F881FBB1F621773078407BA0720F0B7
:1013D000621B730B840BBA0BEE1F88F7E095089520
:1013E0000E94F7096894B1110C94D20A08950E94E2
:1013F000B70A88F09F5798F0B92F9927B751B0F0E6
:10140000E1F0660F771F881F991F1AF0BA95C9F788
:1014100014C0B13091F00E94D10AB1E008950C944B
:10142000D10A672F782F8827B85F39F0B93FCCF3FE
:10143000869577956795B395D9F73EF49095809505
:10144000709561957F4F8F4F9F4F0895E89409C025
:1014500097FB3EF490958095709561957F4F8F4FE7
:101460009F4F9923A9F0F92F96E9BB279395F695FD
:10147000879577956795B795F111F8CFFAF4BB0F7B
:1014800011F460FF1BC06F5F7F4F8F4F9F4F16C0DF
:10149000882311F096E911C0772321F09EE8872F69
:1014A000762F05C0662371F096E8862F70E060E025
:1014B0002AF09A95660F771F881FDAF7880F96959E
:1014C000879597F90895990F0008550FAA0BE0E842
:1014D000FEEF16161706E807F907C0F012161306F6
:1014E000E407F50798F0621B730B840B950B39F436
:1014F0000A2661F0232B242B252B21F408950A269C
:1015000009F4A140A6958FEF811D811D089597F9DB
:101510009F6780E870E060E008959FEF80EC089599
:1015200000240A94161617061806090608950024C2
:101530000A9412161306140605060895092E03943C
:10154000000C11F4882352F0BB0F40F4BF2B11F4B0
:1015500060FF04C06F5F7F4F8F4F9F4F089557FD0F
:101560009058440F551F59F05F3F71F04795880F11
:1015700097FB991F61F09F3F79F0879508951216A8
:1015800013061406551FF2CF4695F1DF08C0161654
:1015900017061806991FF1CF869571056105089405
:1015A0000895E894BB2766277727CB0197F908951C
:1015B0000E94630A08F48FEF08950E94F00A0C94C9
:1015C0009E0A0E94900A38F00E94970A20F0952304
:1015D00011F00C94870A0C948D0A11240C94D20AF1
:1015E0000E94AF0A70F3959FC1F3950F50E0551F0D
:1015F000629FF001729FBB27F00DB11D639FAA2768
:10160000F00DB11DAA1F649F6627B00DA11D661FB6
:10161000829F2227B00DA11D621F739FB00DA11DD7
:10162000621F839FA00D611D221F749F3327A00D91
:10163000611D231F849F600D211D822F762F6A2F2D
:1016400011249F5750409AF0F1F088234AF0EE0F92
:10165000FF1FBB1F661F771F881F91505040A9F7BF
:101660009E3F510580F00C94870A0C94D20A5F3F8C
:10167000E4F3983ED4F3869577956795B795F795FB
:10168000E7959F5FC1F7FE2B880F911D9695879573
:1016900097F90895FB01DC014150504048F001905A
:1016A0000D920020C9F701C01D9241505040E0F753
:1016B0000895AEE0B0E0EFE5FBE00C945B0E0D8921
:1016C0001E898F89988D26E02C831A83098397FFC2
:1016D00002C080E090E801979E838D83AE01455E55
:1016E0005F4F698D7A8DCE0101960E94890B4D81E5
:1016F0005E8157FD0AC02F813885421753070CF4CD
:101700009A01020F131FF80110822E96E4E00C9448
:10171000770EABE0B0E0EFE8FBE00C944D0E7C01FF
:101720003B018A01FC0117821682838181FFC8C1B7
:10173000CE0101965C01F7019381F30193FD859140
:1017400093FF81913F01882309F453C1853239F415
:1017500093FD859193FF81913F01853229F4B70173
:1017600090E00E94790DE7CF912C212C312CFFE1E4
:10177000F31538F08B3211F190F4803209F1833295
:1017800029F137FC3CC020ED280F2A3050F536FEF9
:1017900020C08AE0989E200D1124922E06C08D3222
:1017A00091F0803371F7689430F8F30193FD8591DF
:1017B00093FF81913F018111DACF21C0689431F804
:1017C000689432F8F2CF689433F8EFCF689434F825
:1017D000ECCFEAE02E9E200D1124222E689435F8DD
:1017E000E4CF8E3229F436FC04C1689436F8DDCF9C
:1017F0008C3619F4689437F8D8CF8836B1F2982F20
:101800009F7D95549330E0F08336A1F18337C1F189
:10181000833509F063C02801F2E04F0E511CF80136
:10182000C080D180692D70E036FC02C06FEF7FEF81
:10183000C6010E94630D4C01689437F882010AC00A
:101840000C5F1F4FFFE3F98388248394912C65017B
:10185000E89437F833FE2DC0522C8114910471F5B1
:10186000552009F468CFB70180E290E00E94790D1D
:101870005A94F6CFF801808189830E5F1F4FE4CF21
:101880002801F2E04F0E511CF801C080D180692D73
:1018900070E036FC02C06FEF7FEFC6010E946E0D54
:1018A0004C018201D5CFB70180E290E00E94790D12
:1018B0002A942814190409F0B0F7CECFF60137FCAA
:1018C000859137FE81916F01B70190E00E94790DFB
:1018D00051105A94F1E08F1A9108BFCF843619F055
:1018E000893609F077C0F80137FE6BC060817181DD
:1018F000828193810C5F1F4FF32DFF763F2E97FF60
:1019000009C090958095709561957F4F8F4F9F4F3F
:10191000689437F82AE030E0A5010E94A90DC82E8E
:10192000CA188C2C432C36FE0CC0E89440F8C9141D
:1019300040F434FE05C032FC03C0F32DFE7E4F2E72
:10194000892C44FE95C0FE01EC0DF11D8081803391
:1019500009F087C0242D297E422E842D8870582EB0
:1019600043FC95C040FE8FC09C2C821418F42C0CB4
:10197000922C981844FE91C0B70180E390E00E9439
:10198000790D42FE09C088E790E041FE02C088E57B
:1019900090E0B7010E94790DC91408F48AC0CA9476
:1019A000D12C9FEFC91AD90ACA0CDB1CF60182910F
:1019B0006F01B70190E00E94790DAC14BD04B1F73E
:1019C0004FCF60817181072E000C880B990B0E5F41
:1019D0001F4F92CFD32CE894D4F82AE030E085371B
:1019E00039F1232D297FD22E8F3601F148F4883525
:1019F000A9F0F701868197812B96E2E10C94690E9C
:101A0000803749F08837A9F7D4FE02C06894D2F82D
:101A100020E130E00DC06894D4F8F6CF34FE03C066
:101A2000822F8660D82E20E132E002C028E030E02C
:101A3000F801D7FE0FC060817181828193810C5FB4
:101A40001F4FA5010E94A90DC82ECA183D2CE8946D
:101A500037F867CF6081718190E080E00E5F1F4FA3
:101A6000F0CF42FC02C0839478CF8394839475CFE7
:101A7000842D867809F471CFF6CFB70180E290E02B
:101A80000E94790D83948214C0F3512C73CF522C91
:101A90005818821408F46ECFF8CF842D867809F494
:101AA0007BCF8BE241FE80E247FC8DE2B70190E004
:101AB00071CFB70180E390E00E94790D9A946CCFCA
:101AC0008FEF9FEF99CFFC0105906150704001109E
:101AD000D8F7809590958E0F9F1F0895FC01615057
:101AE000704001900110D8F7809590958E0F9F1F40
:101AF00008950F931F93CF93DF93182F092FEB01B6
:101B00008B8181FD09C01FEF0FEF812F902FDF9197
:101B1000CF911F910F91089582FF14C02E813F81B4
:101B20008C819D81281739073CF4E881F981CF0128
:101B300001969983888310838E819F8101969F836C
:101B40008E83E3CFE885F985812F0995892BA1F351
:101B5000DACFFA01AA27283051F1203181F1E89437
:101B60006F936E7F6E5F7F4F8F4F9F4FAF4FB1E090
:101B70003ED0B4E03CD0670F781F891F9A1FA11D8B
:101B8000680F791F8A1F911DA11D6A0F711D811D8C
:101B9000911DA11D20D009F468943F912AE0269F51
:101BA00011243019305D3193DEF6CF010895462FB0
:101BB0004770405D4193B3E00FD0C9F7F6CF462F91
:101BC0004F70405D4A3318F0495D31FD40524193FA
:101BD00002D0A9F7EACFB4E0A695979587957795B7
:101BE0006795BA95C9F700976105710508959B013E
:101BF000AC010A2E06945795479537952795BA95C7
:101C0000C9F7620F731F841F951FA01D0895F999CE
:101C1000FECF92BD81BDF89A992780B50895A8E1BD
:101C2000B0E042E050E00C943F0EDC01A40FB51F81
:101C30004150504048F0CB01840F951F2E910E94D7
:101C4000260E41505040D0F70895262FF999FECF27
:101C500092BD81BDF89A019700B4021639F01FBAFF
:101C600020BD0FB6F894FA9AF99A0FBE089501961E
:101C7000272F0E94260E0C94250EDC01CB01FC01BF
:101C8000F999FECF06C0F2BDE1BDF89A319600B4D5
:101C90000D9241505040B8F708952F923F924F92C5
:101CA0005F926F927F928F929F92AF92BF92CF92EC
:101CB000DF92EF92FF920F931F93CF93DF93CDB7F5
:101CC000DEB7CA1BDB0B0FB6F894DEBF0FBECDBF6D
:101CD00009942A88398848885F846E847D848C843E
:101CE0009B84AA84B984C884DF80EE80FD800C8147
:101CF0001B81AA81B981CE0FD11D0FB6F894DEBF2A
:0C1D00000FBECDBFED010895F894FFCF99
:101D0C0000316253C4F5A697B988DBEA7D4C1F2ECF
:101D1C004372211087B6E5D4FACB98A93E0F5C6DBF
:101D2C0086B7E4D5427320113F0E5D6CFBCA99A8AF
:101D3C00C5F4A796013063527C4D1E2FB889DAEB9F
:101D4C003D0C5F6EF9C89BAA84B5E6D7407122138F
:101D5C007E4F1C2DBA8BD8E9C7F6A594033261507F
:101D6C00BB8AD9E87F4E1D2C02336051C6F7A4956F
:101D7C00F8C99AAB3C0D5E6F4170231285B4E7D65F
:101D8C007A4B1829BE8FDCEDC3F2A190073665544F
:101D9C0039085B6AFDCC9FAE80B1E2D3447526173F
:101DAC00FCCD9EAF38095A6B4574271681B0E3D22F
:101DBC00BF8EDDEC7B4A192806376455C2F3A0911F
:101DCC004776251483B2E1D0FECF9CAD3A0B58690F
:101DDC0004356657C0F1A293BD8CDFEE79481B2AFF
:101DEC00C1F0A3920534675678491A2BBC8DDEEFEF
:101DFC0082B3E0D1467724153B0A5968FFCE9DACDF
:101E0C0054696D656F75742E006572726F20726502
:101E1C00636562656E646F206461646F73003D3D41
:101E2C003D20414C455254412044452056414C4F95
:101E3C0052204352495449434F203D3D3D005348A5
:101E4C00543330004C4452004171756973696361BD
:101E5C006F20002575003A202054656D70203D20C0
:101E6C000020C2B043207C20556D696461646520FC
:101E7C003D20002025207C204C756D696E6F7369A8
:101E8C0064616465203D20002025002D2D2D2D2D15
:101E9C002D2D2D2D204349434C4F20434F4E434C69
:101EAC005549444F202D2D2D2D2D2D2D2D2D0069D7
:101EBC006D7072696D696E646F206D6564696173B4
:101ECC003A002D2D2D20506572696F646963204195
:101EDC00717569736974696F6E204D6F6465202D1F
:101EEC002D2D002D2D2D204F6E652053686F7420E5
:101EFC0041717569736974696F6E204D6F646520EB
:101F0C002D2D2D00486F7576652070726F626C6593
:101F1C006D61206E6F204352432C206E616F2065E3
:101F2C006820706F73736976656C207072696E745B
:0E1F3C00617220726573756C7461646F0000D1
:00000001FF
